:100000000C942A000C943F000C943F000C943F0089
:100010000C943F000C943F000C943F000C943F0064
:100020000C943F000C943F000C943F000C943F0054
:100030000C943F000C943F000C943F000C943F0044
:100040000C943F000C943F000C943F000C943F0034
:100050000C943F0011241FBECFE5D8E0DEBFCDBF1A
:1000600010E0A0E6B0E0E6E5F3E002C005900D92F6
:10007000AE36B107D9F70E9418010C94A9010C946F
:1000800000001BBA8BB381608BBB88B38D7F88BBAC
:1000900088B38B7F88BB089588B3886088BB089538
:1000A00088B3877F88BB0895CF93C82F88B38B7F91
:1000B00088BB8FE99FE00197F1F700C000000E9424
:1000C0004C008FE99FE00197F1F700C00000CBBB27
:1000D0000E945000CF9108958FE08ABB8FEF87BBBD
:1000E0002FEF83EF91E0215080409040E1F700C076
:1000F000000080E20E94540080E20E94540080E8E8
:100100000E9454008FE99FE00197F1F700C00000C2
:1001100080E00E94540080EF0E9454008FE99FE02D
:100120000197F1F700C0000080E00E94540080E1D8
:100130000E9454008FE39FE10197F1F700C0000097
:100140000895CF93C82F88B38B7F88BB88B3826014
:1001500088BB8C2F0E9454008FE99FE00197F1F734
:1001600000C000000E944C008FE99FE00197F1F76A
:1001700000C0000020E1C29FC00111248BBB8FE9A9
:100180009FE00197F1F700C000000E945000CF915E
:1001900008950F931F93CF938C01C0E003C00E947A
:1001A000A100CF5FF801EC0FF11D80818111F7CF25
:1001B000CF911F910F9108951F93CF93DF93EC017F
:1001C000142F613019F0623069F017C080E80E9486
:1001D0005400812F8295807F0E945400CE010E949E
:1001E000C9000BC080EC0E945400812F8295807F53
:1001F0000E945400CE010E94C900DF91CF911F914F
:1002000008954AEF489F9001499F300D1124A3E8BB
:10021000BDE20E949A0196958795929582958F707E
:1002200089279F70892787509F4F9BBD8ABD08955E
:100230000E946C0081E00E946F010E948C0184B3D7
:10024000886184BB81B3806281BB87E893E197BDFD
:1002500086BD8FB582688FBD8EB58B618EBD82E302
:1002600090E09BBD8ABD0E9488018A3A79F445E0FE
:1002700061E080E690E00E94DC002FEF89E698E1E3
:10028000215080409040E1F700C000000E9496019C
:100290008636910571F48AE590E00E9401012FEF06
:1002A00089E698E1215080409040E1F700C00000CD
:1002B0000AC080E090E00E94010145E061E087E62D
:1002C00090E00E94DC002FEF89E698E12150804009
:1002D0009040E1F700C000000E944100C4CF882395
:1002E00019F0813059F0089587B3806B87BB87B3CD
:1002F0008F7B87BB8DB180658DB9089587B380648E
:1003000087BB87B38F7487BB8DB180648DB9089527
:10031000779BFECF8FB108958AB188618AB980B585
:10032000866880BD87E689B910BC08955F9BFECFC3
:100330008CB10895A29FB001B39FC001A39F700D1F
:10034000811D1124911DB29F700D811D1124911DDD
:060350000895F894FFCFB0
:0E035600666972652121006E6F726D616C0028
:00000001FF
