S0140000666972655F616C61726D5F322E737265636D
S11300000C942A000C943F000C943F000C943F0085
S11300100C943F000C943F000C943F000C943F0060
S11300200C943F000C943F000C943F000C943F0050
S11300300C943F000C943F000C943F000C943F0040
S11300400C943F000C943F000C943F000C943F0030
S11300500C943F0011241FBECFE5D8E0DEBFCDBF16
S113006010E0A0E6B0E0E8ECF4E002C005900D92E8
S1130070AE36B107D9F70E9433010C9462020C9496
S1130080000080EC87B987E886B9089527B197B155
S1130090207E8F71822B982B97B986B1806486B9A4
S11300A0349BFECF86B1806186B924B185B190E0DE
S11300B0982F8827822B08951BBA8BB381608BBB42
S11300C088B38E7F88BB88B38D7F88BB089588B33F
S11300D0846088BB089588B38B7F88BB0895CF93D1
S11300E0C82F88B38D7F88BB8FE99FE00197F1F714
S11300F000C000000E9467008FE99FE00197F1F7BC
S113010000C00000CBBB0E946B00CF9108958FE02C
S11301108ABB8FEF87BB2FEF83EF91E021508040A4
S11301209040E1F700C0000080E20E946F0080E28E
S11301300E946F0080E80E946F008FE99FE00197A2
S1130140F1F700C0000080E00E946F0080EF0E9481
S11301506F008FE99FE00197F1F700C0000080E095
S11301600E946F0080E10E946F008FE39FE101977E
S1130170F1F700C000000895CF93C82F88B38D7F96
S113018088BB88B3816088BB8C2F0E946F008FE985
S11301909FE00197F1F700C000000E9467008FE91B
S11301A09FE00197F1F700C0000020E1C29FC00169
S11301B011248BBB8FE99FE00197F1F700C0000089
S11301C00E946B00CF9108950F931F93CF938C01DE
S11301D0C0E003C00E94BC00CF5FF801EC0FF11D2A
S11301E080818111F7CFCF911F910F9108951F93B3
S11301F0CF93DF93EC01142F613019F0623069F072
S113020017C080E80E946F00812F8295807F0E9432
S11302106F00CE010E94E4000BC080EC0E946F00CE
S1130220812F8295807F0E946F00CE010E94E4009E
S1130230DF91CF911F9108954AEF489F9001499F04
S1130240300D1124A3E8BDE20E941E029695879505
S1130250929582958F7089279F70892787509F4F29
S11302609BBD8ABD0895CF93DF93CDB7DEB7E297E8
S11302700FB6F894DEBF0FBECDBF84B3806684BBD7
S113028081B38B7F81BB84B3886184BB81B380627B
S113029081BB8FE08ABB80E00E94F00188B38F7E2F
S11302A088BB0E9410028FEF87BB95E793BF19BEEE
S11302B08CBF84B3866084BB81B3806281BB87E8D2
S11302C093E197BD86BD8FB582688FBD8EB58B6176
S11302D08EBD82E390E09BBD8ABD0E9487000E9490
S11302E04100E12CF12C81E00E9446008C0116951E
S11302F00795169507954AE0BE016F5F7F4FC801C9
S11303000E942D0241E061E0CE0101960E94F700B7
S11303102FEF83EC99E0215080409040E1F700C03A
S113032000000634110578F145E061E080E690E0D4
S11303300E94F700F11008C08AEA0E940C0286E6C7
S11303400E941A02FF24F3948EEB8CBF85B388605D
S113035085BB85B38F7E85BB95B380E2892785BB3A
S113036095B380E4892785BB8AE590E00E941C014F
S11303702FEF83EC99E0215080409040E1F700C0DA
S11303800000E12C2AC045E061E087E690E00E948D
S1130390F700E11008C080E00E940C028CE60E9485
S11303A01A02EE24E39485B3877F85BB85B38F7EE1
S11303B085BB85B38F7D85BB85B38F7B85BB80E093
S11303C090E00E941C012FEF83EC99E021508040C3
S11303D09040E1F700C00000F12C0E945C0083CF44
S11303E0882319F0813071F0089587B3806B87BB3F
S11303F087B38F7B87BB8DB180658DB988B38061EE
S113040088BB089587B3806487BB87B38F7487BB29
S11304108DB180648DB908958FB9779BFECF08950F
S11304208AB188618AB980B5866880BD87E689B952
S113043010BC08955D9BFECF8CB90895A29FB001B6
S1130440B39FC001A39F700D811D1124911DB29F04
S1130450700D811D1124911D0895BB274A3031F47C
S1130460992322F4BDE2909581959F4F0C94390213
S1130470BB27FB015527AA27880F991FAA1FA4177A
S113048010F0A41B83955051B9F7A05DAA3308F06E
S1130490A95DA193009779F7B111B1931192CB01A2
S11304A00C945202DC01FC01672F71917723E1F770
S11304B0329704C07C916D9370836291AE17BF072D
S10B04C0C8F30895F894FFCF7E
S11104C8464952452121004E6F726D616C0051
S9030000FC
